S015000075505F4D6F64756C65315F70322E7372656353
S11300000C943E000C945B000C945B000C945B001D
S11300100C945B000C945B000C945B000C945B00F0
S11300200C945B000C945B000C945B000C945B00E0
S11300300C945B000C945B000C945B000C945B00D0
S11300400C945B000C945B000C945B000C945B00C0
S11300500C945B000C945B000C945B000C945B00B0
S11300600C945D000C945B000C945B000C945B009E
S11300700C945B000C945B000C945B0011241FBE79
S1130080CFEFD8E0DEBFCDBF11E0A0E0B1E0E4E700
S1130090FDE002C005900D92A631B107D9F721E029
S11300A0A6E1B1E001C01D92AD32B207E1F70E94B2
S11300B08F010C94B8060C9400001F920F920FB697
S11300C00F9211242F933F934F935F936F937F93DA
S11300D08F939F93AF93BF93F8944091780050917E
S11300E0790080911B0190911C01A0911D01B09198
S11300F01E018093170190931801A0931901B093E6
S11301001A01352F20E0C901840F911DA0E0B0E051
S113011080931B0190931C01A0931D01B0931E01B9
S113012080911B0190911C01A0911D01B0911E01B1
S113013085369105A105B10598F480911B01909134
S11301401C01A0911D01B0911E010496A11DB11DB9
S113015080931B0190931C01A0931D01B0931E0179
S113016080911B0190911C01A0911D01B0911E0171
S11301708D97A105B10598F480911B0190911C0104
S1130180A0911D01B0911E010196A11DB11D809386
S11301901B0190931C01A0931D01B0931E0140917B
S11301A01701509118016091190170911A01809101
S11301B01B0190911C01A0911D01B0911E014D5F86
S11301C05F4F6F4F7F4F481759076A077B0768F1E6
S11301D040911701509118016091190170911A0111
S11301E080911B0190911C01A0911D01B0911E01F1
S11301F0435051096109710984179507A607B70788
S113020018F413C0789415C08091170190911801C7
S1130210A0911901B0911A0180931B0190931C01C4
S1130220A0931D01B0931E01EDCF81E080931601D0
S1130230E9CFBF91AF919F918F917F916F915F9122
S11302404F913F912F910F900FBE0F901F901895D3
S11302502FEF27B9FC018081982F92959F70906AA7
S11302608F70806A98B9E1EEF4E03197F1F700C03D
S1130270000098B1905898B9E1EEF4E03197F1F7A5
S113028000C0000088B981EE94E00197F1F700C046
S1130290000088B1805888B9E1EEF4E03197F1F7B5
S11302A000C000000895CF93DF93FC012081222336
S11302B051F0EC0121960E942801CE012196FC0107
S11302C020812111F8CFDF91CF9108959FEF97B945
S11302D0982F92959F70906898B9E3ECF9E0319764
S11302E0F1F700C0000098B1905898B9E3ECF9E038
S11302F03197F1F700C000008F70806888B983ECF3
S113030099E00197F1F700C0000088B1805888B9DE
S1130310E3ECF9E03197F1F700C000000895ECE751
S1130320F0E0808180648083EAE7F0E080818F6C74
S1130330808387EA91E60197F1F700C000008FEF10
S113034087B983E30E94660182E30E9466018CE21E
S11303500E9466018CE00E94660181E00E946601B1
S11303601092160178940F2EF3E0AF2EF1E0BF2E19
S1130370F02D03E211E0C7E3D1E00F2E412CF0EEA3
S11303805F2EFCE16F2EF3E07F2EF02D809116019D
S11303908823E1F31092160180911B0190911C01B6
S11303A0A0911D01B0911E01892B8A2B8B2B49F43E
S11303B010921F011092200110922101109222012B
S11303C020C020911B0130911C0140911D015091CE
S11303D01E01C301B2010E94C103CA01B9010E94F6
S11303E00B0320E038E347E457E40E9476020E94BE
S11303F0DF0260931F017093200180932101909389
S1130400220181E00E94660190901F0180902001EA
S11304103090210120902201692D782D832D922D79
S11304200E940B036B017C0120E83CE240E859E4A4
S11304300E94BD03181654F020E030E84DE654E461
S1130440C701B6010E94DB0288233CF580911B01A1
S113045090911C01A0911D01B0911E01BF93AF9317
S11304609F938F93BF92AF921F930F930E94E303C6
S113047088E091E00E945301C8010E945301F801F1
S11304808DB79EB708960FB6F8949EBF0FBE8DBF6A
S11304901192EC17FD07E1F779CF80911B01909140
S11304A01C01A0911D01B0911E01BF93AF939F93B6
S11304B08F932F923F928F929F9280E091E09F932F
S11304C08F931F930F930E94E303C8010E9453016B
S11304D0F8018DB79EB70C960FB6F8949EBF0FBE69
S11304E08DBF1192EC17FD07E1F750CF5058BB2791
S11304F0AA270ED008C1F9D030F0FED020F031F494
S11305009F3F11F41EF4EEC00EF4E095E7FBE4C047
S1130510E92F0AD180F3BA17620773078407950796
S113052018F071F49EF522C10EF4E0950B2EBA2F4B
S1130530A02D0B01B90190010C01CA01A0011124E5
S1130540FF27591B99F0593F50F4503E68F11A1691
S1130550F040A22F232F342F4427585FF3CF469522
S113056037952795A795F0405395C9F77EF41F1644
S1130570BA0B620B730B840BBAF09150A1F0FF0F0E
S1130580BB1F661F771F881FC2F70EC0BA0F621FFA
S1130590731F841F48F4879577956795B795F795EA
S11305A09E3F08F0B3CF9395880F08F09927EE0F7C
S11305B09795879508956CD008F481E00895BCD090
S11305C088F09F5790F0B92F9927B751A0F0D1F038
S11305D0660F771F881F991F1AF0BA95C9F712C0C2
S11305E0B13081F0C3D0B1E00895C0C0672F782F37
S11305F08827B85F39F0B93FCCF38695779567952E
S1130600B395D9F73EF490958095709561957F4F99
S11306108F4F9F4F0895E89409C097FB3EF490953F
S11306208095709561957F4F8F4F9F4F9923A9F0C7
S1130630F92F96E9BB279395F69587957795679556
S1130640B795F111F8CFFAF4BB0F11F460FF1BC09A
S11306506F5F7F4F8F4F9F4F16C0882311F096E92D
S113066011C0772321F09EE8872F762F05C06623DB
S113067071F096E8862F70E060E02AF09A95660F94
S1130680771F881FDAF7880F9695879597F908954D
S1130690990F0008550FAA0BE0E8FEEF161617068F
S11306A0E807F907C0F012161306E407F50798F0F7
S11306B0621B730B840B950B39F40A2661F0232B10
S11306C0242B252B21F408950A2609F4A140A6958C
S11306D08FEF811D811D089597F99F6780E870E071
S11306E060E008959FEF80EC089500240A941616A4
S11306F0170618060906089500240A94121613060C
S1130700140605060895092E0394000C11F4882399
S113071052F0BB0F40F4BF2B11F460FF04C06F5FB5
S11307207F4F8F4F9F4F089557FD9058440F551F8B
S113073059F05F3F71F04795880F97FB991F61F05F
S11307409F3F79F087950895121613061406551FD6
S1130750F2CF4695F1DF08C0161617061806991F42
S1130760F1CF86957105610508940895E894BB2737
S113077066277727CB0197F908958ADF08F48FEF6E
S11307800895A1E21A2EAA1BBB1BFD010DC0AA1FCE
S1130790BB1FEE1FFF1FA217B307E407F50720F0E6
S11307A0A21BB30BE40BF50B661F771F881F991F61
S11307B01A9469F760957095809590959B01AC01AA
S11307C0BD01CF010895AEE0B0E0E9EEF3E00C9492
S11307D08F060D891E8986E08C831A8309838FEF27
S11307E09FE79E838D83CE014996AC016F89788DF6
S11307F0CE0101960E940504EF81F885E00FF11FF8
S113080010822E96E4E00C94AB06ACE0B0E0EBE092
S1130810F4E00C9481067C016B018A01FC011782CF
S11308201682838181FFC6C188248394912C8C0E07
S11308309D1EF7019381F60193FD859193FF8191AC
S11308406F01882309F4B2C1853239F493FD85918F
S113085093FF81916F01853229F4B70190E00E94E2
S1130860F705E7CF512C312C20E02032A8F48B324D
S113087061F028F4803251F0833271F40BC08D3270
S113088039F0803349F4216028C02260246025C0F7
S1130890286023C0206121C027FD27C0382F305392
S11308A03A3078F426FF06C0FAE05F9E300D11243A
S11308B0532E13C08AE0389E300D1124332E20624B
S11308C00CC08E3221F426FD71C1206406C08C3622
S11308D011F4206802C0883641F4F60193FD859135
S11308E093FF81916F018111C0CF982F955493305C
S11308F018F09052933028F40C5F1F4FFFE3F983F4
S11309000DC0833631F0833771F0833509F05EC052
S113091023C0F801808189830E5F1F4F44244394D0
S1130920512C540115C03801F2E06F0E711CF8010E
S1130930A080B18026FF03C0652D70E002C06FEF78
S11309407FEFC5012C870E94EC052C0183012C85C7
S11309506FE7262E222218C03801F2E06F0E711CB8
S1130960F801A080B18026FF03C0652D70E002C0AD
S11309706FEF7FEFC5012C870E94E1052C012C85C8
S113098050E8252E222A830123FC1CC006C0B7018F
S113099080E290E00E94F7053A94832D90E0481697
S11309A05906A8F30FC0F50127FC859127FE819114
S11309B05F01B70190E00E94F70531103A94F1E02D
S11309C04F1A51084114510471F7EDC0843611F0E7
S11309D0893641F5F80127FF07C060817181828162
S11309E093810C5F1F4F08C060817181882777FD58
S11309F08095982F0E5F1F4F4FE6B42EB22297FFBB
S1130A0009C090958095709561957F4F8F4F9F4F4A
S1130A10F0E8BF2A2AE030E0A4010E942306A82EB1
S1130A20A81843C0853731F43FEEB32EB2222AE032
S1130A3030E024C099EFB92EB2228F36B9F020F4F9
S1130A40883509F0B3C00DC0803721F0883709F02C
S1130A50ADC002C020E1B22AB4FE0BC084E0B82AC3
S1130A6008C024FF09C0E6E0BE2A06C028E030E042
S1130A7005C020E130E002C020E132E0F801B7FE19
S1130A8007C060817181828193810C5F1F4F06C012
S1130A906081718180E090E00E5F1F4FA4010E948D
S1130AA02306A82EA818FFE7BF22B6FE0BC02B2DE5
S1130AB02E7FA51450F4B4FE0AC0B2FC08C02B2D3E
S1130AC02E7E05C07A2C2B2D03C07A2C01C0752CE8
S1130AD024FF0DC0FE01EA0DF11D8081803311F465
S1130AE0297E09C022FF06C07394739404C0822F28
S1130AF0867809F0739423FD14C020FF0FC05A2C8C
S1130B00731460F4530C5718732C08C0B70180E2B7
S1130B1090E02C870E94F70573942C857314B0F32E
S1130B2004C0731410F4371801C0312C24FF12C010
S1130B30B70180E390E02C870E94F7052C8522FF03
S1130B401EC021FF03C088E590E002C088E790E062
S1130B50B7010CC0822F867891F021FD02C080E29B
S1130B6001C08BE227FD8DE2B70190E00E94F705FA
S1130B7006C0B70180E390E00E94F7055A94A514DB
S1130B80C0F3AA94F401EA0DF11DB701808190E04D
S1130B900E94F705A110F5CF06C0B70180E290E0EE
S1130BA00E94F7053A943110F8CF43CEF70126811D
S1130BB0378102C02FEF3FEFC9012C96E2E10C947C
S1130BC09D06FC010590615070400110D8F7809596
S1130BD090958E0F9F1F0895FC0161507040019005
S1130BE00110D8F7809590958E0F9F1F08950F934D
S1130BF01F93CF93DF938C01EB018B8181FD03C0A5
S1130C000FEF1FEF1AC082FF0DC02E813F818C8130
S1130C109D812817390764F4E881F9810193F983E8
S1130C20E88306C0E885F985802F0995892B41F76B
S1130C308E819F8101969F838E83C801DF91CF911E
S1130C401F910F910895FA01AA27283051F12031FC
S1130C5081F1E8946F936E7F6E5F7F4F8F4F9F4F4C
S1130C60AF4FB1E03ED0B4E03CD0670F781F891F8E
S1130C709A1FA11D680F791F8A1F911DA11D6A0F5C
S1130C80711D811D911DA11D20D009F468943F910F
S1130C902AE0269F11243019305D3193DEF6CF010E
S1130CA00895462F4770405D4193B3E00FD0C9F7D4
S1130CB0F6CF462F4F70405D4A3318F0495D31FD41
S1130CC04052419302D0A9F7EACFB4E0A695979594
S1130CD0879577956795BA95C9F70097610571056A
S1130CE008959B01AC010A2E0694579547953795B4
S1130CF02795BA95C9F7620F731F841F951FA01D0E
S1130D0008952F923F924F925F926F927F928F92AB
S1130D109F92AF92BF92CF92DF92EF92FF920F9386
S1130D201F93CF93DF93CDB7DEB7CA1BDB0B0FB690
S1130D30F894DEBF0FBECDBF09942A88398848884D
S1130D405F846E847D848C849B84AA84B984C884E3
S1130D50DF80EE80FD800C811B81AA81B981CE0FDA
S1130D60D11D0FB6F894DEBF0FBECDBFED010895BF
S1070D70F894FFCF21
S1130D74256C7520256C75004F5554204F46205220
S1090D84414E474500004A
S9030000FC
