S015000075505F4D6F64756C65315F70312E7372656354
S11300000C943E000C9450000C9450000C9450003E
S11300100C9450000C9450000C9450000C9450001C
S11300200C9450000C9450000C9450000C9450000C
S11300300C9450000C9450000C9450000C945000FC
S11300400C9450000C9450000C9450000C945000EC
S11300500C9450000C9450000C9450000C945000DC
S11300600C9450000C9450000C9450000C945000CC
S11300700C9450000C9450000C94500011241FBE9A
S1130080CFEFD8E0DEBFCDBF21E0A0E0B1E001C0FA
S11300901D92A130B207E1F70E9452000C9478003F
S11300A00C94000011B8E0E8F0E080818065808362
S11300B0109289008AEF8093880010928B008093BD
S11300C08A00E1E8F0E080818960808380B18170FA
S11300D080930001813031F45498559A808189705D
S11300E08083F4CF5598549A808184608083EECFC6
S10700F0F894FFCFAE
S9030000FC
