:100000000C943E000C945B000C945B000C945B0021
:100010000C945B000C945B000C945B000C945B00F4
:100020000C945B000C945B000C945B000C945B00E4
:100030000C945B000C94B2000C945B000C945B007D
:100040000C945B000C945B000C945B000C945B00C4
:100050000C945B000C945B000C945B000C945B00B4
:100060000C945B000C945B000C945B000C945B00A4
:100070000C945B000C945B000C945B0011241FBE7D
:10008000CFEFD8E0DEBFCDBF12E0A0E0B1E0EEEBF5
:10009000F3E002C005900D92AC32B107D9F722E02F
:1000A000ACE2B2E001C01D92A333B207E1F70E94B7
:1000B0005D000C94DD010C940000ECE7F0E0808121
:1000C00080648083EAE7F0E08081876E808384B17A
:1000D000806B84B98DB581608DBD8CB580658CBD1C
:1000E0002C9A87B18C7F87B9EFE6F0E0808182603F
:1000F00080838EE38093890080E880938800E1E824
:10010000F0E0908199609083E1E6F0E08083808167
:100110008078808378940000FECF86B18370089544
:100120002091780030917900EAE7F0E080818061E9
:100130008083932F80E0AC01420F511D9A01842FE0
:10014000932F08952C98880F991F880F991F9069F5
:100150009EBD0DB407FEFDCF8EBD0DB407FEFDCFD5
:100160002C9A08951F920F920FB60F9211242F937D
:100170003F934F935F936F937F938F939F93AF932F
:10018000BF93EF93FF93F8948091320280933102F2
:100190000E948D0080933202909132028091310250
:1001A000981304C080913002823311F4109230020F
:1001B00080913202811110C020913002E22FF0E0D4
:1001C000EE0FFF1FE853FE4F808191812F5F209338
:1001D00030020E94A20043C080913202813099F423
:1001E00080913002893128F480E090E00E94A200E2
:1001F00004C08FEF93E00E94A200809130028F5FD5
:10020000809330022CC080913202823081F42091A0
:100210003002E22FF0E0EE0FFF1FE050FF4F808131
:1002200091812F5F209330020E94A20018C080911C
:100230003202833081F420913002E22FF0E0EE0FA1
:10024000FF1FEC59FE4F808191812F5F2093300278
:100250000E94A20004C08FEF91E00E94A200809152
:100260007A0084FF5FC00E949000A0E0B0E080931D
:100270002C0290932D02A0932E02B0932F02209176
:100280002C0230912D0240912E0250912F02A0E4B9
:10029000B8E30E94C60160932C0270932D028093F4
:1002A0002E0290932F0260912C0270912D0280916A
:1002B0002E0290912F022FEF33E040E050E00E9499
:1002C000A40120932C0230932D0240932E025093D0
:1002D0002F0280912C0290912D02A0912E02B091BC
:1002E0002F02805C994FAF4FBF4F80932C029093A9
:1002F0002D02A0932E02B0932F0280912C02909198
:100300002D02A0912E02B0912F02892F8093890097
:1003100080912C0290912D02A0912E02B0912F027B
:10032000809388007894FF91EF91BF91AF919F9156
:100330008F917F916F915F914F913F912F910F908E
:100340000FBE0F901F901895A1E21A2EAA1BBB1B7F
:10035000FD010DC0AA1FBB1FEE1FFF1FA217B30791
:10036000E407F50720F0A21BB30BE40BF50B661FA7
:10037000771F881F991F1A9469F76095709580956B
:1003800090959B01AC01BD01CF0108950E94D10160
:10039000A59F900DB49F900DA49F800D911D1124D9
:1003A0000895A29FB001B39FC001A39F01D0B29F47
:0E03B000700D811D1124911D0895F894FFCF4A
:1003BE00290052007B00A400CD00F6001E0147016B
:1003CE0070019901C201EB0114023D0266028F0217
:1003DE00B802E102090332035B038403AD03D603C3
:1003EE00FF03D603AD0384035B0332030903E1026B
:1003FE00B8028F0266023D021402EB01C20199019E
:10040E00700147011E01F600CD00A4007B005200D2
:10041E0029000000140029003D00520066007B00F8
:10042E008F00A400B800CD00E100F6000A011E0105
:10043E00330147015C01700185019901AE01C201D2
:10044E00D701EB010002140228023D02510266029E
:10045E007A028F02A302B802CC02E102F50209036E
:10046E001E03320347035B03700384039903AD033A
:10047E00C203D603EB03FF0340027F02BC02F60267
:10048E002C035E038A03AF03CE03E603F603FE03DB
:10049E00FE03F603E603CE03AF038A035E032C03CB
:1004AE00F602BC027F0240020002BF01800143013E
:1004BE000901D300A1007500500031001900090098
:1004CE000100010009001900310050007500A10063
:0C04DE00D300090143018001BF01FF01B0
:00000001FF
